{
  "_format": "hh-sol-artifact-1",
  "contractName": "Reand",
  "sourceName": "contracts/Reand.sol",
  "abi": [
    {
      "inputs": [],
      "stateMutability": "nonpayable",
      "type": "constructor"
    },
    {
      "anonymous": false,
      "inputs": [
        {
          "indexed": false,
          "internalType": "address",
          "name": "executor",
          "type": "address"
        },
        {
          "indexed": false,
          "internalType": "address",
          "name": "originToken",
          "type": "address"
        },
        {
          "indexed": false,
          "internalType": "uint256",
          "name": "originTokenId",
          "type": "uint256"
        },
        {
          "indexed": false,
          "internalType": "address",
          "name": "childToken",
          "type": "address"
        },
        {
          "indexed": false,
          "internalType": "uint256",
          "name": "childTokenId",
          "type": "uint256"
        }
      ],
      "name": "Anded",
      "type": "event"
    },
    {
      "inputs": [
        {
          "components": [
            {
              "internalType": "address",
              "name": "executor",
              "type": "address"
            },
            {
              "components": [
                {
                  "internalType": "bytes4",
                  "name": "assetClass",
                  "type": "bytes4"
                },
                {
                  "internalType": "bytes",
                  "name": "data",
                  "type": "bytes"
                }
              ],
              "internalType": "struct AssetLib.AssetData",
              "name": "originAsset",
              "type": "tuple"
            },
            {
              "components": [
                {
                  "internalType": "bytes4",
                  "name": "assetClass",
                  "type": "bytes4"
                },
                {
                  "internalType": "bytes",
                  "name": "data",
                  "type": "bytes"
                }
              ],
              "internalType": "struct AssetLib.AssetData",
              "name": "childAsset",
              "type": "tuple"
            }
          ],
          "internalType": "struct OrderLib.OrderData",
          "name": "order",
          "type": "tuple"
        }
      ],
      "name": "createAnd",
      "outputs": [],
      "stateMutability": "nonpayable",
      "type": "function"
    },
    {
      "inputs": [
        {
          "internalType": "address",
          "name": "originToken",
          "type": "address"
        },
        {
          "internalType": "uint256",
          "name": "originTokenId",
          "type": "uint256"
        },
        {
          "internalType": "uint256",
          "name": "index",
          "type": "uint256"
        }
      ],
      "name": "getAnd",
      "outputs": [
        {
          "internalType": "address",
          "name": "",
          "type": "address"
        },
        {
          "internalType": "uint256",
          "name": "",
          "type": "uint256"
        }
      ],
      "stateMutability": "view",
      "type": "function"
    },
    {
      "inputs": [
        {
          "internalType": "bytes32",
          "name": "id",
          "type": "bytes32"
        }
      ],
      "name": "getCompleted",
      "outputs": [
        {
          "internalType": "bool",
          "name": "",
          "type": "bool"
        }
      ],
      "stateMutability": "view",
      "type": "function"
    }
  ],
  "bytecode": "0x608060405234801561001057600080fd5b506108c5806100206000396000f3fe608060405234801561001057600080fd5b50600436106100415760003560e01c80635bb78737146100465780636fad81b31461007d578063704b64b314610092575b600080fd5b610059610054366004610536565b6100c5565b604080516001600160a01b0390931683526020830191909152015b60405180910390f35b61009061008b36600461056b565b6101bf565b005b6100b56100a03660046105ad565b60009081526001602052604090205460ff1690565b6040519015158152602001610074565b6001600160a01b038316600090815260208181526040808320858452825280832084845282528083208151808301909252805460e01b6001600160e01b031916825260018101805485948594939290840191610120906105c6565b80601f016020809104026020016040519081016040528092919081815260200182805461014c906105c6565b80156101995780601f1061016e57610100808354040283529160200191610199565b820191906000526020600020905b81548152906001019060200180831161017c57829003601f168201915b50505050508152505090506000806101b08361022a565b90999098509650505050505050565b806101cc6100a0826102d6565b1561021d5760405162461bcd60e51b815260206004820152601c60248201527f5265616e64426173653a20616c726561647920636f6d706c6574656400000000604482015260640160405180910390fd5b6102268261032e565b5050565b805160009081906001600160e01b0319166339d690a360e11b1480610260575082516001600160e01b03191663025ceed960e61b145b1561028c5760008084602001518060200190518101906102809190610601565b90969095509350505050565b82516001600160e01b0319166322ba176160e21b14156102cb57600083602001518060200190518101906102c0919061062f565b946000945092505050565b506000928392509050565b60006102e5602083018361064c565b6102f26020840184610669565b6102ff6040850185610669565b60405160200161031193929190610733565b604051602081830303815290604052805190602001209050919050565b60008061034f6103416020850185610669565b61034a906107e3565b61022a565b90925090506000806103676103416040870187610669565b909250905061038c848461037e6040890189610669565b610387906107e3565b610414565b6103b6610398866102d6565b6000908152600160208190526040909120805460ff19169091179055565b604080513381526001600160a01b038681166020830152818301869052841660608201526080810183905290517fa4aa18b29a9a25b941aa52564368f431934fa58c0dd5c710a87eb8c7092be1f99181900360a00190a15050505050565b6001600160a01b03831660008181526020818152604080832086845282528083209383526002825280832086845282528083205483529281529190208251815463ffffffff191660e09190911c178155828201518051849361047d926001850192910190610485565b505050505050565b828054610491906105c6565b90600052602060002090601f0160209004810192826104b357600085556104f9565b82601f106104cc57805160ff19168380011785556104f9565b828001600101855582156104f9579182015b828111156104f95782518255916020019190600101906104de565b50610505929150610509565b5090565b5b80821115610505576000815560010161050a565b6001600160a01b038116811461053357600080fd5b50565b60008060006060848603121561054b57600080fd5b83356105568161051e565b95602085013595506040909401359392505050565b60006020828403121561057d57600080fd5b813567ffffffffffffffff81111561059457600080fd5b8201606081850312156105a657600080fd5b9392505050565b6000602082840312156105bf57600080fd5b5035919050565b600181811c908216806105da57607f821691505b602082108114156105fb57634e487b7160e01b600052602260045260246000fd5b50919050565b6000806040838503121561061457600080fd5b825161061f8161051e565b6020939093015192949293505050565b60006020828403121561064157600080fd5b81516105a68161051e565b60006020828403121561065e57600080fd5b81356105a68161051e565b60008235603e1983360301811261067f57600080fd5b9190910192915050565b80356001600160e01b0319811681146106a157600080fd5b919050565b6001600160e01b03196106b882610689565b16825260006020820135601e198336030181126106d457600080fd5b8201803567ffffffffffffffff8111156106ed57600080fd5b8036038413156106fc57600080fd5b60406020860152806040860152806020830160608701376000606082870101526060601f19601f8301168601019250505092915050565b6001600160a01b0384168152606060208201819052600090610757908301856106a6565b828103604084015261076981856106a6565b9695505050505050565b634e487b7160e01b600052604160045260246000fd5b6040805190810167ffffffffffffffff811182821017156107ac576107ac610773565b60405290565b604051601f8201601f1916810167ffffffffffffffff811182821017156107db576107db610773565b604052919050565b6000604082360312156107f557600080fd5b6107fd610789565b61080683610689565b815260208084013567ffffffffffffffff8082111561082457600080fd5b9085019036601f83011261083757600080fd5b81358181111561084957610849610773565b61085b601f8201601f191685016107b2565b9150808252368482850101111561087157600080fd5b8084840185840137600090820184015291830191909152509291505056fea26469706673582212206a66666fa85297832fa72b137e58703728b66c78cfe77f0301b35032e7be20ac64736f6c634300080a0033",
  "linkReferences": {},
  "deployedLinkReferences": {}
}