{
  "_format": "hh-sol-artifact-1",
  "contractName": "ERC721",
  "sourceName": "contracts/erc721/ERC721.sol",
  "abi": [
    {
      "anonymous": false,
      "inputs": [
        {
          "indexed": true,
          "internalType": "address",
          "name": "owner",
          "type": "address"
        },
        {
          "indexed": true,
          "internalType": "address",
          "name": "approved",
          "type": "address"
        },
        {
          "indexed": true,
          "internalType": "uint256",
          "name": "tokenId",
          "type": "uint256"
        }
      ],
      "name": "Approval",
      "type": "event"
    },
    {
      "anonymous": false,
      "inputs": [
        {
          "indexed": true,
          "internalType": "address",
          "name": "owner",
          "type": "address"
        },
        {
          "indexed": true,
          "internalType": "address",
          "name": "operator",
          "type": "address"
        },
        {
          "indexed": false,
          "internalType": "bool",
          "name": "approved",
          "type": "bool"
        }
      ],
      "name": "ApprovalForAll",
      "type": "event"
    },
    {
      "anonymous": false,
      "inputs": [
        {
          "indexed": true,
          "internalType": "address",
          "name": "from",
          "type": "address"
        },
        {
          "indexed": true,
          "internalType": "address",
          "name": "to",
          "type": "address"
        },
        {
          "indexed": true,
          "internalType": "uint256",
          "name": "tokenId",
          "type": "uint256"
        }
      ],
      "name": "Transfer",
      "type": "event"
    },
    {
      "inputs": [
        {
          "internalType": "string",
          "name": "name_",
          "type": "string"
        },
        {
          "internalType": "string",
          "name": "symbol_",
          "type": "string"
        }
      ],
      "name": "__ERC721Test_init",
      "outputs": [],
      "stateMutability": "nonpayable",
      "type": "function"
    },
    {
      "inputs": [
        {
          "internalType": "address",
          "name": "to",
          "type": "address"
        },
        {
          "internalType": "uint256",
          "name": "tokenId",
          "type": "uint256"
        }
      ],
      "name": "approve",
      "outputs": [],
      "stateMutability": "nonpayable",
      "type": "function"
    },
    {
      "inputs": [
        {
          "internalType": "address",
          "name": "owner",
          "type": "address"
        }
      ],
      "name": "balanceOf",
      "outputs": [
        {
          "internalType": "uint256",
          "name": "",
          "type": "uint256"
        }
      ],
      "stateMutability": "view",
      "type": "function"
    },
    {
      "inputs": [
        {
          "internalType": "uint256",
          "name": "tokenId",
          "type": "uint256"
        }
      ],
      "name": "getApproved",
      "outputs": [
        {
          "internalType": "address",
          "name": "",
          "type": "address"
        }
      ],
      "stateMutability": "view",
      "type": "function"
    },
    {
      "inputs": [
        {
          "internalType": "address",
          "name": "owner",
          "type": "address"
        },
        {
          "internalType": "address",
          "name": "operator",
          "type": "address"
        }
      ],
      "name": "isApprovedForAll",
      "outputs": [
        {
          "internalType": "bool",
          "name": "",
          "type": "bool"
        }
      ],
      "stateMutability": "view",
      "type": "function"
    },
    {
      "inputs": [
        {
          "internalType": "address",
          "name": "to",
          "type": "address"
        },
        {
          "internalType": "uint256",
          "name": "tokenId",
          "type": "uint256"
        }
      ],
      "name": "mint",
      "outputs": [],
      "stateMutability": "nonpayable",
      "type": "function"
    },
    {
      "inputs": [],
      "name": "name",
      "outputs": [
        {
          "internalType": "string",
          "name": "",
          "type": "string"
        }
      ],
      "stateMutability": "view",
      "type": "function"
    },
    {
      "inputs": [
        {
          "internalType": "uint256",
          "name": "tokenId",
          "type": "uint256"
        }
      ],
      "name": "ownerOf",
      "outputs": [
        {
          "internalType": "address",
          "name": "",
          "type": "address"
        }
      ],
      "stateMutability": "view",
      "type": "function"
    },
    {
      "inputs": [
        {
          "internalType": "address",
          "name": "from",
          "type": "address"
        },
        {
          "internalType": "address",
          "name": "to",
          "type": "address"
        },
        {
          "internalType": "uint256",
          "name": "tokenId",
          "type": "uint256"
        }
      ],
      "name": "safeTransferFrom",
      "outputs": [],
      "stateMutability": "nonpayable",
      "type": "function"
    },
    {
      "inputs": [
        {
          "internalType": "address",
          "name": "from",
          "type": "address"
        },
        {
          "internalType": "address",
          "name": "to",
          "type": "address"
        },
        {
          "internalType": "uint256",
          "name": "tokenId",
          "type": "uint256"
        },
        {
          "internalType": "bytes",
          "name": "_data",
          "type": "bytes"
        }
      ],
      "name": "safeTransferFrom",
      "outputs": [],
      "stateMutability": "nonpayable",
      "type": "function"
    },
    {
      "inputs": [
        {
          "internalType": "address",
          "name": "operator",
          "type": "address"
        },
        {
          "internalType": "bool",
          "name": "approved",
          "type": "bool"
        }
      ],
      "name": "setApprovalForAll",
      "outputs": [],
      "stateMutability": "nonpayable",
      "type": "function"
    },
    {
      "inputs": [
        {
          "internalType": "bytes4",
          "name": "interfaceId",
          "type": "bytes4"
        }
      ],
      "name": "supportsInterface",
      "outputs": [
        {
          "internalType": "bool",
          "name": "",
          "type": "bool"
        }
      ],
      "stateMutability": "view",
      "type": "function"
    },
    {
      "inputs": [],
      "name": "symbol",
      "outputs": [
        {
          "internalType": "string",
          "name": "",
          "type": "string"
        }
      ],
      "stateMutability": "view",
      "type": "function"
    },
    {
      "inputs": [
        {
          "internalType": "uint256",
          "name": "tokenId",
          "type": "uint256"
        }
      ],
      "name": "tokenURI",
      "outputs": [
        {
          "internalType": "string",
          "name": "",
          "type": "string"
        }
      ],
      "stateMutability": "view",
      "type": "function"
    },
    {
      "inputs": [
        {
          "internalType": "address",
          "name": "from",
          "type": "address"
        },
        {
          "internalType": "address",
          "name": "to",
          "type": "address"
        },
        {
          "internalType": "uint256",
          "name": "tokenId",
          "type": "uint256"
        }
      ],
      "name": "transferFrom",
      "outputs": [],
      "stateMutability": "nonpayable",
      "type": "function"
    },
    {
      "inputs": [
        {
          "indexed": true,
          "internalType": "uint256",
          "name": "tokenId",
          "type": "uint256"
        },
        {
          "indexed": true,
          "internalType": "uint256",
          "name": "salePrice",
          "type": "uint256"
        }
      ],
      "name": "royaltyInfo",
      "outputs": [
        {
          "internalType": "address",
          "name": "",
          "type": "address"
        },
        {
          "internalType": "uint256",
          "name": "",
          "type": "uint256"
        }
      ],
      "stateMutability": "view",
      "type": "function"
    }
  ],
  "bytecode": "0x608060405234801561001057600080fd5b50612b8c806100206000396000f3fe608060405234801561001057600080fd5b50600436106100f55760003560e01c80636352211e11610097578063b88d4fde11610066578063b88d4fde14610282578063c87b56dd1461029e578063cae9bda7146102ce578063e985e9c5146102ea576100f5565b80636352211e146101e857806370a082311461021857806395d89b4114610248578063a22cb46514610266576100f5565b8063095ea7b3116100d3578063095ea7b31461017857806323b872dd1461019457806340c10f19146101b057806342842e0e146101cc576100f5565b806301ffc9a7146100fa57806306fdde031461012a578063081812fc14610148575b600080fd5b610114600480360381019061010f9190611bcd565b61031a565b604051610121919061203f565b60405180910390f35b6101326103fc565b60405161013f919061205a565b60405180910390f35b610162600480360381019061015d9190611c8b565b61048e565b60405161016f9190611fd8565b60405180910390f35b610192600480360381019061018d9190611b91565b610513565b005b6101ae60048036038101906101a99190611a8b565b61062b565b005b6101ca60048036038101906101c59190611b91565b61068b565b005b6101e660048036038101906101e19190611a8b565b610699565b005b61020260048036038101906101fd9190611c8b565b6106b9565b60405161020f9190611fd8565b60405180910390f35b610232600480360381019061022d9190611a26565b61076b565b60405161023f919061227c565b60405180910390f35b610250610823565b60405161025d919061205a565b60405180910390f35b610280600480360381019061027b9190611b55565b6108b5565b005b61029c60048036038101906102979190611ada565b6108cb565b005b6102b860048036038101906102b39190611c8b565b61092d565b6040516102c5919061205a565b60405180910390f35b6102e860048036038101906102e39190611c1f565b6109d4565b005b61030460048036038101906102ff9190611a4f565b610acc565b604051610311919061203f565b60405180910390f35b60007f80ac58cd000000000000000000000000000000000000000000000000000000007bffffffffffffffffffffffffffffffffffffffffffffffffffffffff1916827bffffffffffffffffffffffffffffffffffffffffffffffffffffffff191614806103e557507f5b5e139f000000000000000000000000000000000000000000000000000000007bffffffffffffffffffffffffffffffffffffffffffffffffffffffff1916827bffffffffffffffffffffffffffffffffffffffffffffffffffffffff1916145b806103f557506103f482610b60565b5b9050919050565b60606065805461040b906124d2565b80601f0160208091040260200160405190810160405280929190818152602001828054610437906124d2565b80156104845780601f1061045957610100808354040283529160200191610484565b820191906000526020600020905b81548152906001019060200180831161046757829003601f168201915b5050505050905090565b600061049982610bca565b6104d8576040517f08c379a00000000000000000000000000000000000000000000000000000000081526004016104cf906121dc565b60405180910390fd5b6069600083815260200190815260200160002060009054906101000a900473ffffffffffffffffffffffffffffffffffffffff169050919050565b600061051e826106b9565b90508073ffffffffffffffffffffffffffffffffffffffff168373ffffffffffffffffffffffffffffffffffffffff16141561058f576040517f08c379a00000000000000000000000000000000000000000000000000000000081526004016105869061221c565b60405180910390fd5b8073ffffffffffffffffffffffffffffffffffffffff166105ae610c36565b73ffffffffffffffffffffffffffffffffffffffff1614806105dd57506105dc816105d7610c36565b610acc565b5b61061c576040517f08c379a00000000000000000000000000000000000000000000000000000000081526004016106139061213c565b60405180910390fd5b6106268383610c3e565b505050565b61063c610636610c36565b82610cf7565b61067b576040517f08c379a00000000000000000000000000000000000000000000000000000000081526004016106729061223c565b60405180910390fd5b610686838383610dd5565b505050565b610695828261103c565b5050565b6106b4838383604051806020016040528060008152506108cb565b505050565b6000806067600084815260200190815260200160002060009054906101000a900473ffffffffffffffffffffffffffffffffffffffff169050600073ffffffffffffffffffffffffffffffffffffffff168173ffffffffffffffffffffffffffffffffffffffff161415610762576040517f08c379a00000000000000000000000000000000000000000000000000000000081526004016107599061217c565b60405180910390fd5b80915050919050565b60008073ffffffffffffffffffffffffffffffffffffffff168273ffffffffffffffffffffffffffffffffffffffff1614156107dc576040517f08c379a00000000000000000000000000000000000000000000000000000000081526004016107d39061215c565b60405180910390fd5b606860008373ffffffffffffffffffffffffffffffffffffffff1673ffffffffffffffffffffffffffffffffffffffff168152602001908152602001600020549050919050565b606060668054610832906124d2565b80601f016020809104026020016040519081016040528092919081815260200182805461085e906124d2565b80156108ab5780601f10610880576101008083540402835291602001916108ab565b820191906000526020600020905b81548152906001019060200180831161088e57829003601f168201915b5050505050905090565b6108c76108c0610c36565b8383611216565b5050565b6108dc6108d6610c36565b83610cf7565b61091b576040517f08c379a00000000000000000000000000000000000000000000000000000000081526004016109129061223c565b60405180910390fd5b61092784848484611383565b50505050565b606061093882610bca565b610977576040517f08c379a000000000000000000000000000000000000000000000000000000000815260040161096e906121fc565b60405180910390fd5b60006109816113df565b905060008151116109a157604051806020016040528060008152506109cc565b806109ab846113f6565b6040516020016109bc929190611fb4565b6040516020818303038152906040525b915050919050565b600060019054906101000a900460ff166109fc5760008054906101000a900460ff1615610a05565b610a046115a3565b5b610a44576040517f08c379a0000000000000000000000000000000000000000000000000000000008152600401610a3b9061219c565b60405180910390fd5b60008060019054906101000a900460ff161590508015610a94576001600060016101000a81548160ff02191690831515021790555060016000806101000a81548160ff0219169083151502179055505b610a9c6115b4565b610aa68383611605565b8015610ac75760008060016101000a81548160ff0219169083151502179055505b505050565b6000606a60008473ffffffffffffffffffffffffffffffffffffffff1673ffffffffffffffffffffffffffffffffffffffff16815260200190815260200160002060008373ffffffffffffffffffffffffffffffffffffffff1673ffffffffffffffffffffffffffffffffffffffff16815260200190815260200160002060009054906101000a900460ff16905092915050565b60007f01ffc9a7000000000000000000000000000000000000000000000000000000007bffffffffffffffffffffffffffffffffffffffffffffffffffffffff1916827bffffffffffffffffffffffffffffffffffffffffffffffffffffffff1916149050919050565b60008073ffffffffffffffffffffffffffffffffffffffff166067600084815260200190815260200160002060009054906101000a900473ffffffffffffffffffffffffffffffffffffffff1673ffffffffffffffffffffffffffffffffffffffff1614159050919050565b600033905090565b816069600083815260200190815260200160002060006101000a81548173ffffffffffffffffffffffffffffffffffffffff021916908373ffffffffffffffffffffffffffffffffffffffff160217905550808273ffffffffffffffffffffffffffffffffffffffff16610cb1836106b9565b73ffffffffffffffffffffffffffffffffffffffff167f8c5be1e5ebec7d5bd14f71427d1e84f3dd0314c0f7b2291e5b200ac8c7c3b92560405160405180910390a45050565b6000610d0282610bca565b610d41576040517f08c379a0000000000000000000000000000000000000000000000000000000008152600401610d389061211c565b60405180910390fd5b6000610d4c836106b9565b90508073ffffffffffffffffffffffffffffffffffffffff168473ffffffffffffffffffffffffffffffffffffffff161480610dbb57508373ffffffffffffffffffffffffffffffffffffffff16610da38461048e565b73ffffffffffffffffffffffffffffffffffffffff16145b80610dcc5750610dcb8185610acc565b5b91505092915050565b8273ffffffffffffffffffffffffffffffffffffffff16610df5826106b9565b73ffffffffffffffffffffffffffffffffffffffff1614610e4b576040517f08c379a0000000000000000000000000000000000000000000000000000000008152600401610e429061209c565b60405180910390fd5b600073ffffffffffffffffffffffffffffffffffffffff168273ffffffffffffffffffffffffffffffffffffffff161415610ebb576040517f08c379a0000000000000000000000000000000000000000000000000000000008152600401610eb2906120dc565b60405180910390fd5b610ec6838383611686565b610ed1600082610c3e565b6001606860008573ffffffffffffffffffffffffffffffffffffffff1673ffffffffffffffffffffffffffffffffffffffff1681526020019081526020016000206000828254610f2191906123e8565b925050819055506001606860008473ffffffffffffffffffffffffffffffffffffffff1673ffffffffffffffffffffffffffffffffffffffff1681526020019081526020016000206000828254610f789190612361565b92505081905550816067600083815260200190815260200160002060006101000a81548173ffffffffffffffffffffffffffffffffffffffff021916908373ffffffffffffffffffffffffffffffffffffffff160217905550808273ffffffffffffffffffffffffffffffffffffffff168473ffffffffffffffffffffffffffffffffffffffff167fddf252ad1be2c89b69c2b068fc378daa952ba7f163c4a11628f55a4df523b3ef60405160405180910390a461103783838361168b565b505050565b600073ffffffffffffffffffffffffffffffffffffffff168273ffffffffffffffffffffffffffffffffffffffff1614156110ac576040517f08c379a00000000000000000000000000000000000000000000000000000000081526004016110a3906121bc565b60405180910390fd5b6110b581610bca565b156110f5576040517f08c379a00000000000000000000000000000000000000000000000000000000081526004016110ec906120bc565b60405180910390fd5b61110160008383611686565b6001606860008473ffffffffffffffffffffffffffffffffffffffff1673ffffffffffffffffffffffffffffffffffffffff16815260200190815260200160002060008282546111519190612361565b92505081905550816067600083815260200190815260200160002060006101000a81548173ffffffffffffffffffffffffffffffffffffffff021916908373ffffffffffffffffffffffffffffffffffffffff160217905550808273ffffffffffffffffffffffffffffffffffffffff16600073ffffffffffffffffffffffffffffffffffffffff167fddf252ad1be2c89b69c2b068fc378daa952ba7f163c4a11628f55a4df523b3ef60405160405180910390a46112126000838361168b565b5050565b8173ffffffffffffffffffffffffffffffffffffffff168373ffffffffffffffffffffffffffffffffffffffff161415611285576040517f08c379a000000000000000000000000000000000000000000000000000000000815260040161127c906120fc565b60405180910390fd5b80606a60008573ffffffffffffffffffffffffffffffffffffffff1673ffffffffffffffffffffffffffffffffffffffff16815260200190815260200160002060008473ffffffffffffffffffffffffffffffffffffffff1673ffffffffffffffffffffffffffffffffffffffff16815260200190815260200160002060006101000a81548160ff0219169083151502179055508173ffffffffffffffffffffffffffffffffffffffff168373ffffffffffffffffffffffffffffffffffffffff167f17307eab39ab6107e8899845ad3d59bd9653f200f220920489ca2b5937696c3183604051611376919061203f565b60405180910390a3505050565b61138e848484610dd5565b61139a84848484611690565b6113d9576040517f08c379a00000000000000000000000000000000000000000000000000000000081526004016113d09061207c565b60405180910390fd5b50505050565b606060405180602001604052806000815250905090565b6060600082141561143e576040518060400160405280600181526020017f3000000000000000000000000000000000000000000000000000000000000000815250905061159e565b600082905060005b6000821461147057808061145990612535565b915050600a8261146991906123b7565b9150611446565b60008167ffffffffffffffff8111156114b2577f4e487b7100000000000000000000000000000000000000000000000000000000600052604160045260246000fd5b6040519080825280601f01601f1916602001820160405280156114e45781602001600182028036833780820191505090505b5090505b60008514611597576001826114fd91906123e8565b9150600a8561150c919061257e565b60306115189190612361565b60f81b818381518110611554577f4e487b7100000000000000000000000000000000000000000000000000000000600052603260045260246000fd5b60200101907effffffffffffffffffffffffffffffffffffffffffffffffffffffffffffff1916908160001a905350600a8561159091906123b7565b94506114e8565b8093505050505b919050565b60006115ae30611827565b15905090565b600060019054906101000a900460ff16611603576040517f08c379a00000000000000000000000000000000000000000000000000000000081526004016115fa9061225c565b60405180910390fd5b565b600060019054906101000a900460ff16611654576040517f08c379a000000000000000000000000000000000000000000000000000000000815260040161164b9061225c565b60405180910390fd5b816065908051906020019061166a92919061184a565b50806066908051906020019061168192919061184a565b505050565b505050565b505050565b60006116b18473ffffffffffffffffffffffffffffffffffffffff16611827565b1561181a578373ffffffffffffffffffffffffffffffffffffffff1663150b7a026116da610c36565b8786866040518563ffffffff1660e01b81526004016116fc9493929190611ff3565b602060405180830381600087803b15801561171657600080fd5b505af192505050801561174757506040513d601f19601f820116820180604052508101906117449190611bf6565b60015b6117ca573d8060008114611777576040519150601f19603f3d011682016040523d82523d6000602084013e61177c565b606091505b506000815114156117c2576040517f08c379a00000000000000000000000000000000000000000000000000000000081526004016117b99061207c565b60405180910390fd5b805181602001fd5b63150b7a0260e01b7bffffffffffffffffffffffffffffffffffffffffffffffffffffffff1916817bffffffffffffffffffffffffffffffffffffffffffffffffffffffff19161491505061181f565b600190505b949350505050565b6000808273ffffffffffffffffffffffffffffffffffffffff163b119050919050565b828054611856906124d2565b90600052602060002090601f01602090048101928261187857600085556118bf565b82601f1061189157805160ff19168380011785556118bf565b828001600101855582156118bf579182015b828111156118be5782518255916020019190600101906118a3565b5b5090506118cc91906118d0565b5090565b5b808211156118e95760008160009055506001016118d1565b5090565b60006119006118fb846122bc565b612297565b90508281526020810184848401111561191857600080fd5b611923848285612490565b509392505050565b600061193e611939846122ed565b612297565b90508281526020810184848401111561195657600080fd5b611961848285612490565b509392505050565b60008135905061197881612afa565b92915050565b60008135905061198d81612b11565b92915050565b6000813590506119a281612b28565b92915050565b6000815190506119b781612b28565b92915050565b600082601f8301126119ce57600080fd5b81356119de8482602086016118ed565b91505092915050565b600082601f8301126119f857600080fd5b8135611a0884826020860161192b565b91505092915050565b600081359050611a2081612b3f565b92915050565b600060208284031215611a3857600080fd5b6000611a4684828501611969565b91505092915050565b60008060408385031215611a6257600080fd5b6000611a7085828601611969565b9250506020611a8185828601611969565b9150509250929050565b600080600060608486031215611aa057600080fd5b6000611aae86828701611969565b9350506020611abf86828701611969565b9250506040611ad086828701611a11565b9150509250925092565b60008060008060808587031215611af057600080fd5b6000611afe87828801611969565b9450506020611b0f87828801611969565b9350506040611b2087828801611a11565b925050606085013567ffffffffffffffff811115611b3d57600080fd5b611b49878288016119bd565b91505092959194509250565b60008060408385031215611b6857600080fd5b6000611b7685828601611969565b9250506020611b878582860161197e565b9150509250929050565b60008060408385031215611ba457600080fd5b6000611bb285828601611969565b9250506020611bc385828601611a11565b9150509250929050565b600060208284031215611bdf57600080fd5b6000611bed84828501611993565b91505092915050565b600060208284031215611c0857600080fd5b6000611c16848285016119a8565b91505092915050565b60008060408385031215611c3257600080fd5b600083013567ffffffffffffffff811115611c4c57600080fd5b611c58858286016119e7565b925050602083013567ffffffffffffffff811115611c7557600080fd5b611c81858286016119e7565b9150509250929050565b600060208284031215611c9d57600080fd5b6000611cab84828501611a11565b91505092915050565b611cbd8161241c565b82525050565b611ccc8161242e565b82525050565b6000611cdd8261231e565b611ce78185612334565b9350611cf781856020860161249f565b611d008161266b565b840191505092915050565b6000611d1682612329565b611d208185612345565b9350611d3081856020860161249f565b611d398161266b565b840191505092915050565b6000611d4f82612329565b611d598185612356565b9350611d6981856020860161249f565b80840191505092915050565b6000611d82603283612345565b9150611d8d8261267c565b604082019050919050565b6000611da5602583612345565b9150611db0826126cb565b604082019050919050565b6000611dc8601c83612345565b9150611dd38261271a565b602082019050919050565b6000611deb602483612345565b9150611df682612743565b604082019050919050565b6000611e0e601983612345565b9150611e1982612792565b602082019050919050565b6000611e31602c83612345565b9150611e3c826127bb565b604082019050919050565b6000611e54603883612345565b9150611e5f8261280a565b604082019050919050565b6000611e77602a83612345565b9150611e8282612859565b604082019050919050565b6000611e9a602983612345565b9150611ea5826128a8565b604082019050919050565b6000611ebd602e83612345565b9150611ec8826128f7565b604082019050919050565b6000611ee0602083612345565b9150611eeb82612946565b602082019050919050565b6000611f03602c83612345565b9150611f0e8261296f565b604082019050919050565b6000611f26602f83612345565b9150611f31826129be565b604082019050919050565b6000611f49602183612345565b9150611f5482612a0d565b604082019050919050565b6000611f6c603183612345565b9150611f7782612a5c565b604082019050919050565b6000611f8f602b83612345565b9150611f9a82612aab565b604082019050919050565b611fae81612486565b82525050565b6000611fc08285611d44565b9150611fcc8284611d44565b91508190509392505050565b6000602082019050611fed6000830184611cb4565b92915050565b60006080820190506120086000830187611cb4565b6120156020830186611cb4565b6120226040830185611fa5565b81810360608301526120348184611cd2565b905095945050505050565b60006020820190506120546000830184611cc3565b92915050565b600060208201905081810360008301526120748184611d0b565b905092915050565b6000602082019050818103600083015261209581611d75565b9050919050565b600060208201905081810360008301526120b581611d98565b9050919050565b600060208201905081810360008301526120d581611dbb565b9050919050565b600060208201905081810360008301526120f581611dde565b9050919050565b6000602082019050818103600083015261211581611e01565b9050919050565b6000602082019050818103600083015261213581611e24565b9050919050565b6000602082019050818103600083015261215581611e47565b9050919050565b6000602082019050818103600083015261217581611e6a565b9050919050565b6000602082019050818103600083015261219581611e8d565b9050919050565b600060208201905081810360008301526121b581611eb0565b9050919050565b600060208201905081810360008301526121d581611ed3565b9050919050565b600060208201905081810360008301526121f581611ef6565b9050919050565b6000602082019050818103600083015261221581611f19565b9050919050565b6000602082019050818103600083015261223581611f3c565b9050919050565b6000602082019050818103600083015261225581611f5f565b9050919050565b6000602082019050818103600083015261227581611f82565b9050919050565b60006020820190506122916000830184611fa5565b92915050565b60006122a16122b2565b90506122ad8282612504565b919050565b6000604051905090565b600067ffffffffffffffff8211156122d7576122d661263c565b5b6122e08261266b565b9050602081019050919050565b600067ffffffffffffffff8211156123085761230761263c565b5b6123118261266b565b9050602081019050919050565b600081519050919050565b600081519050919050565b600082825260208201905092915050565b600082825260208201905092915050565b600081905092915050565b600061236c82612486565b915061237783612486565b9250827fffffffffffffffffffffffffffffffffffffffffffffffffffffffffffffffff038211156123ac576123ab6125af565b5b828201905092915050565b60006123c282612486565b91506123cd83612486565b9250826123dd576123dc6125de565b5b828204905092915050565b60006123f382612486565b91506123fe83612486565b925082821015612411576124106125af565b5b828203905092915050565b600061242782612466565b9050919050565b60008115159050919050565b60007fffffffff0000000000000000000000000000000000000000000000000000000082169050919050565b600073ffffffffffffffffffffffffffffffffffffffff82169050919050565b6000819050919050565b82818337600083830152505050565b60005b838110156124bd5780820151818401526020810190506124a2565b838111156124cc576000848401525b50505050565b600060028204905060018216806124ea57607f821691505b602082108114156124fe576124fd61260d565b5b50919050565b61250d8261266b565b810181811067ffffffffffffffff8211171561252c5761252b61263c565b5b80604052505050565b600061254082612486565b91507fffffffffffffffffffffffffffffffffffffffffffffffffffffffffffffffff821415612573576125726125af565b5b600182019050919050565b600061258982612486565b915061259483612486565b9250826125a4576125a36125de565b5b828206905092915050565b7f4e487b7100000000000000000000000000000000000000000000000000000000600052601160045260246000fd5b7f4e487b7100000000000000000000000000000000000000000000000000000000600052601260045260246000fd5b7f4e487b7100000000000000000000000000000000000000000000000000000000600052602260045260246000fd5b7f4e487b7100000000000000000000000000000000000000000000000000000000600052604160045260246000fd5b6000601f19601f8301169050919050565b7f4552433732313a207472616e7366657220746f206e6f6e20455243373231526560008201527f63656976657220696d706c656d656e7465720000000000000000000000000000602082015250565b7f4552433732313a207472616e736665722066726f6d20696e636f72726563742060008201527f6f776e6572000000000000000000000000000000000000000000000000000000602082015250565b7f4552433732313a20746f6b656e20616c7265616479206d696e74656400000000600082015250565b7f4552433732313a207472616e7366657220746f20746865207a65726f2061646460008201527f7265737300000000000000000000000000000000000000000000000000000000602082015250565b7f4552433732313a20617070726f766520746f2063616c6c657200000000000000600082015250565b7f4552433732313a206f70657261746f7220717565727920666f72206e6f6e657860008201527f697374656e7420746f6b656e0000000000000000000000000000000000000000602082015250565b7f4552433732313a20617070726f76652063616c6c6572206973206e6f74206f7760008201527f6e6572206e6f7220617070726f76656420666f7220616c6c0000000000000000602082015250565b7f4552433732313a2062616c616e636520717565727920666f7220746865207a6560008201527f726f206164647265737300000000000000000000000000000000000000000000602082015250565b7f4552433732313a206f776e657220717565727920666f72206e6f6e657869737460008201527f656e7420746f6b656e0000000000000000000000000000000000000000000000602082015250565b7f496e697469616c697a61626c653a20636f6e747261637420697320616c72656160008201527f647920696e697469616c697a6564000000000000000000000000000000000000602082015250565b7f4552433732313a206d696e7420746f20746865207a65726f2061646472657373600082015250565b7f4552433732313a20617070726f76656420717565727920666f72206e6f6e657860008201527f697374656e7420746f6b656e0000000000000000000000000000000000000000602082015250565b7f4552433732314d657461646174613a2055524920717565727920666f72206e6f60008201527f6e6578697374656e7420746f6b656e0000000000000000000000000000000000602082015250565b7f4552433732313a20617070726f76616c20746f2063757272656e74206f776e6560008201527f7200000000000000000000000000000000000000000000000000000000000000602082015250565b7f4552433732313a207472616e736665722063616c6c6572206973206e6f74206f60008201527f776e6572206e6f7220617070726f766564000000000000000000000000000000602082015250565b7f496e697469616c697a61626c653a20636f6e7472616374206973206e6f74206960008201527f6e697469616c697a696e67000000000000000000000000000000000000000000602082015250565b612b038161241c565b8114612b0e57600080fd5b50565b612b1a8161242e565b8114612b2557600080fd5b50565b612b318161243a565b8114612b3c57600080fd5b50565b612b4881612486565b8114612b5357600080fd5b5056fea26469706673582212209195ae324fbce53a7bbaeab7aa5e324262f39b33bdd45677d569d4a386f6bf0564736f6c63430008020033",
  "linkReferences": {},
  "deployedLinkReferences": {}
}