{
  "_format": "hh-sol-artifact-1",
  "contractName": "Reand",
  "sourceName": "contracts/Reand.sol",
  "abi": [
    {
      "inputs": [
        {
          "internalType": "contract IWorldID",
          "name": "_worldId",
          "type": "address"
        },
        {
          "internalType": "string",
          "name": "_actionId",
          "type": "string"
        }
      ],
      "stateMutability": "nonpayable",
      "type": "constructor"
    },
    {
      "inputs": [],
      "name": "AlreadyCompleted",
      "type": "error"
    },
    {
      "inputs": [],
      "name": "AlreadyVerified",
      "type": "error"
    },
    {
      "inputs": [],
      "name": "InvalidNullifier",
      "type": "error"
    },
    {
      "inputs": [],
      "name": "NotAccountVerified",
      "type": "error"
    },
    {
      "inputs": [],
      "name": "ReuqestIdInvalid",
      "type": "error"
    },
    {
      "inputs": [],
      "name": "SenderInvalid",
      "type": "error"
    },
    {
      "anonymous": false,
      "inputs": [
        {
          "indexed": false,
          "internalType": "address",
          "name": "executor",
          "type": "address"
        },
        {
          "indexed": false,
          "internalType": "address",
          "name": "originToken",
          "type": "address"
        },
        {
          "indexed": false,
          "internalType": "uint256",
          "name": "originTokenId",
          "type": "uint256"
        },
        {
          "indexed": false,
          "internalType": "address",
          "name": "childToken",
          "type": "address"
        },
        {
          "indexed": false,
          "internalType": "uint256",
          "name": "childTokenId",
          "type": "uint256"
        }
      ],
      "name": "Anded",
      "type": "event"
    },
    {
      "anonymous": false,
      "inputs": [
        {
          "indexed": true,
          "internalType": "address",
          "name": "previousOwner",
          "type": "address"
        },
        {
          "indexed": true,
          "internalType": "address",
          "name": "newOwner",
          "type": "address"
        }
      ],
      "name": "OwnershipTransferred",
      "type": "event"
    },
    {
      "anonymous": false,
      "inputs": [
        {
          "indexed": false,
          "internalType": "address",
          "name": "account",
          "type": "address"
        },
        {
          "indexed": false,
          "internalType": "bytes4",
          "name": "idType",
          "type": "bytes4"
        }
      ],
      "name": "Verified",
      "type": "event"
    },
    {
      "inputs": [],
      "name": "TRANSFER_REQUEST_ID",
      "outputs": [
        {
          "internalType": "uint64",
          "name": "",
          "type": "uint64"
        }
      ],
      "stateMutability": "view",
      "type": "function"
    },
    {
      "inputs": [
        {
          "components": [
            {
              "internalType": "address",
              "name": "executor",
              "type": "address"
            },
            {
              "components": [
                {
                  "internalType": "bytes4",
                  "name": "assetClass",
                  "type": "bytes4"
                },
                {
                  "internalType": "bytes",
                  "name": "data",
                  "type": "bytes"
                }
              ],
              "internalType": "struct AssetLib.AssetData",
              "name": "originAsset",
              "type": "tuple"
            },
            {
              "components": [
                {
                  "internalType": "bytes4",
                  "name": "assetClass",
                  "type": "bytes4"
                },
                {
                  "internalType": "bytes",
                  "name": "data",
                  "type": "bytes"
                }
              ],
              "internalType": "struct AssetLib.AssetData",
              "name": "childAsset",
              "type": "tuple"
            }
          ],
          "internalType": "struct OrderLib.OrderData",
          "name": "order",
          "type": "tuple"
        }
      ],
      "name": "createAnd",
      "outputs": [],
      "stateMutability": "nonpayable",
      "type": "function"
    },
    {
      "inputs": [
        {
          "internalType": "address",
          "name": "originToken",
          "type": "address"
        },
        {
          "internalType": "uint256",
          "name": "originTokenId",
          "type": "uint256"
        },
        {
          "internalType": "uint256",
          "name": "index",
          "type": "uint256"
        }
      ],
      "name": "getAnd",
      "outputs": [
        {
          "internalType": "address",
          "name": "",
          "type": "address"
        },
        {
          "internalType": "uint256",
          "name": "",
          "type": "uint256"
        }
      ],
      "stateMutability": "view",
      "type": "function"
    },
    {
      "inputs": [
        {
          "internalType": "bytes32",
          "name": "id",
          "type": "bytes32"
        }
      ],
      "name": "getCompleted",
      "outputs": [
        {
          "internalType": "bool",
          "name": "",
          "type": "bool"
        }
      ],
      "stateMutability": "view",
      "type": "function"
    },
    {
      "inputs": [],
      "name": "getSupportedRequests",
      "outputs": [
        {
          "internalType": "uint64[]",
          "name": "arr",
          "type": "uint64[]"
        }
      ],
      "stateMutability": "view",
      "type": "function"
    },
    {
      "inputs": [
        {
          "internalType": "address",
          "name": "account",
          "type": "address"
        },
        {
          "internalType": "bytes4",
          "name": "idType",
          "type": "bytes4"
        }
      ],
      "name": "getVerified",
      "outputs": [
        {
          "internalType": "bool",
          "name": "",
          "type": "bool"
        }
      ],
      "stateMutability": "view",
      "type": "function"
    },
    {
      "inputs": [
        {
          "internalType": "uint64",
          "name": "requestId",
          "type": "uint64"
        }
      ],
      "name": "getZKPRequest",
      "outputs": [
        {
          "components": [
            {
              "internalType": "uint256",
              "name": "schema",
              "type": "uint256"
            },
            {
              "internalType": "uint256",
              "name": "slotIndex",
              "type": "uint256"
            },
            {
              "internalType": "uint256",
              "name": "operator",
              "type": "uint256"
            },
            {
              "internalType": "uint256[]",
              "name": "value",
              "type": "uint256[]"
            },
            {
              "internalType": "string",
              "name": "circuitId",
              "type": "string"
            }
          ],
          "internalType": "struct ICircuitValidator.CircuitQuery",
          "name": "",
          "type": "tuple"
        }
      ],
      "stateMutability": "view",
      "type": "function"
    },
    {
      "inputs": [],
      "name": "owner",
      "outputs": [
        {
          "internalType": "address",
          "name": "",
          "type": "address"
        }
      ],
      "stateMutability": "view",
      "type": "function"
    },
    {
      "inputs": [
        {
          "internalType": "address",
          "name": "",
          "type": "address"
        },
        {
          "internalType": "uint64",
          "name": "",
          "type": "uint64"
        }
      ],
      "name": "proofs",
      "outputs": [
        {
          "internalType": "bool",
          "name": "",
          "type": "bool"
        }
      ],
      "stateMutability": "view",
      "type": "function"
    },
    {
      "inputs": [],
      "name": "renounceOwnership",
      "outputs": [],
      "stateMutability": "nonpayable",
      "type": "function"
    },
    {
      "inputs": [
        {
          "internalType": "uint64",
          "name": "",
          "type": "uint64"
        }
      ],
      "name": "requestQueries",
      "outputs": [
        {
          "internalType": "uint256",
          "name": "schema",
          "type": "uint256"
        },
        {
          "internalType": "uint256",
          "name": "slotIndex",
          "type": "uint256"
        },
        {
          "internalType": "uint256",
          "name": "operator",
          "type": "uint256"
        },
        {
          "internalType": "string",
          "name": "circuitId",
          "type": "string"
        }
      ],
      "stateMutability": "view",
      "type": "function"
    },
    {
      "inputs": [
        {
          "internalType": "uint64",
          "name": "",
          "type": "uint64"
        }
      ],
      "name": "requestValidators",
      "outputs": [
        {
          "internalType": "contract ICircuitValidator",
          "name": "",
          "type": "address"
        }
      ],
      "stateMutability": "view",
      "type": "function"
    },
    {
      "inputs": [
        {
          "internalType": "uint64",
          "name": "requestId",
          "type": "uint64"
        },
        {
          "internalType": "contract ICircuitValidator",
          "name": "validator",
          "type": "address"
        },
        {
          "components": [
            {
              "internalType": "uint256",
              "name": "schema",
              "type": "uint256"
            },
            {
              "internalType": "uint256",
              "name": "slotIndex",
              "type": "uint256"
            },
            {
              "internalType": "uint256",
              "name": "operator",
              "type": "uint256"
            },
            {
              "internalType": "uint256[]",
              "name": "value",
              "type": "uint256[]"
            },
            {
              "internalType": "string",
              "name": "circuitId",
              "type": "string"
            }
          ],
          "internalType": "struct ICircuitValidator.CircuitQuery",
          "name": "query",
          "type": "tuple"
        }
      ],
      "name": "setZKPRequest",
      "outputs": [
        {
          "internalType": "bool",
          "name": "",
          "type": "bool"
        }
      ],
      "stateMutability": "nonpayable",
      "type": "function"
    },
    {
      "inputs": [
        {
          "internalType": "uint64",
          "name": "requestId",
          "type": "uint64"
        },
        {
          "internalType": "uint256[]",
          "name": "inputs",
          "type": "uint256[]"
        },
        {
          "internalType": "uint256[2]",
          "name": "a",
          "type": "uint256[2]"
        },
        {
          "internalType": "uint256[2][2]",
          "name": "b",
          "type": "uint256[2][2]"
        },
        {
          "internalType": "uint256[2]",
          "name": "c",
          "type": "uint256[2]"
        }
      ],
      "name": "submitZKPResponse",
      "outputs": [
        {
          "internalType": "bool",
          "name": "",
          "type": "bool"
        }
      ],
      "stateMutability": "nonpayable",
      "type": "function"
    },
    {
      "inputs": [
        {
          "internalType": "uint256",
          "name": "",
          "type": "uint256"
        }
      ],
      "name": "supportedRequests",
      "outputs": [
        {
          "internalType": "uint64",
          "name": "",
          "type": "uint64"
        }
      ],
      "stateMutability": "view",
      "type": "function"
    },
    {
      "inputs": [
        {
          "internalType": "address",
          "name": "newOwner",
          "type": "address"
        }
      ],
      "name": "transferOwnership",
      "outputs": [],
      "stateMutability": "nonpayable",
      "type": "function"
    },
    {
      "inputs": [
        {
          "internalType": "address",
          "name": "account",
          "type": "address"
        },
        {
          "internalType": "uint256",
          "name": "root",
          "type": "uint256"
        },
        {
          "internalType": "uint256",
          "name": "nullifierHash",
          "type": "uint256"
        },
        {
          "internalType": "uint256[8]",
          "name": "proof",
          "type": "uint256[8]"
        }
      ],
      "name": "verifyWithWorldId",
      "outputs": [],
      "stateMutability": "nonpayable",
      "type": "function"
    }
  ],
  "bytecode": "0x60e0604052600160c0523480156200001657600080fd5b50604051620023bd380380620023bd83398101604081905262000039916200017f565b818181818181816001600160a01b03166080816001600160a01b03168152505062000090816040516020016200007091906200025a565b604051602081830303815290604052620000ad60201b62000c931760201c565b60a05250620000a1905033620000e4565b50505050505062000278565b6000600882604051602001620000c491906200025a565b60408051601f198184030181529190528051602090910120901c92915050565b600180546001600160a01b038381166001600160a01b0319831681179093556040519116919082907f8be0079c531659141344cd1fd0a4f28419497f9722a3daafe3b4186f6b6457e090600090a35050565b634e487b7160e01b600052604160045260246000fd5b60005b83811015620001695781810151838201526020016200014f565b8381111562000179576000848401525b50505050565b600080604083850312156200019357600080fd5b82516001600160a01b0381168114620001ab57600080fd5b60208401519092506001600160401b0380821115620001c957600080fd5b818501915085601f830112620001de57600080fd5b815181811115620001f357620001f362000136565b604051601f8201601f19908116603f011681019083821181831017156200021e576200021e62000136565b816040528281528860208487010111156200023857600080fd5b6200024b8360208301602088016200014c565b80955050505050509250929050565b600082516200026e8184602087016200014c565b9190910192915050565b60805160a05160c051612115620002a86000396000610d2a01526000610d8c01526000610cfa01526121156000f3fe608060405234801561001057600080fd5b506004361061010b5760003560e01c806396bf4741116100a2578063b8c5230811610071578063b8c5230814610295578063c76d0845146102a8578063f1435326146102c8578063f2fde38b146102db578063fee207e6146102ee57600080fd5b806396bf474114610208578063a87231141461022b578063b45c0fdf14610254578063b68967e21461028257600080fd5b80636fad81b3116100de5780636fad81b314610195578063704b64b3146101a8578063715018a6146101db5780638da5cb5b146101e357600080fd5b806313ba0f3b1461011057806337ba9523146101255780635bb787371461014357806363ec508f14610175575b600080fd5b61012361011e366004611639565b610301565b005b61012d610366565b60405161013a91906116e1565b60405180910390f35b61015661015136600461172e565b6103f0565b604080516001600160a01b03909316835260208301919091520161013a565b61017d600181565b6040516001600160401b03909116815260200161013a565b6101236101a3366004611763565b6104ec565b6101cb6101b63660046117a4565b60009081526008602052604090205460ff1690565b604051901515815260200161013a565b6101236105a0565b6001546001600160a01b03165b6040516001600160a01b03909116815260200161013a565b61021b6102163660046117d9565b6105b4565b60405161013a949392919061184c565b6101f06102393660046117d9565b6004602052600090815260409020546001600160a01b031681565b6101cb61026236600461187b565b600260209081526000928352604080842090915290825290205460ff1681565b6101cb61029036600461197f565b610667565b6101cb6102a3366004611a61565b6108c6565b6102bb6102b63660046117d9565b6108fd565b60405161013a9190611ac8565b61017d6102d63660046117a4565b610a57565b6101236102e9366004611b28565b610a94565b6101cb6102fc366004611b9c565b610b0d565b336001600160a01b0385161461032a57604051635390177b60e11b815260040160405180910390fd5b61033684848484610cc8565b610360847fedfdc782489dfad52648887b6bbcd2d458f311fcafc4a4c6ab6208befc2de173610e1b565b50505050565b606060058054806020026020016040519081016040528092919081815260200182805480156103e657602002820191906000526020600020906000905b82829054906101000a90046001600160401b03166001600160401b0316815260200190600801906020826007010492830192600103820291508084116103a35790505b5050505050905090565b6001600160a01b0383166000908152600760209081526040808320858452825280832084845282528083208151808301909252805460e01b6001600160e01b03191682526001810180548594859493929084019161044d90611c86565b80601f016020809104026020016040519081016040528092919081815260200182805461047990611c86565b80156104c65780601f1061049b576101008083540402835291602001916104c6565b820191906000526020600020905b8154815290600101906020018083116104a957829003601f168201915b50505050508152505090506000806104dd83610edd565b90999098509650505050505050565b806104f96101b682610f89565b156105175760405163195332a560e01b815260040160405180910390fd5b610541337fedfdc782489dfad52648887b6bbcd2d458f311fcafc4a4c6ab6208befc2de1736108c6565b1580156105755750610573337fb6a52bbcb3c8a5e803f3bf8d8c28d5d9072c696707a3e6a596e6d1d3f607f5716108c6565b155b15610593576040516356bd989360e11b815260040160405180910390fd5b61059c82610fe1565b5050565b6105a86110c4565b6105b2600061111e565b565b6003602052600090815260409020805460018201546002830154600484018054939492939192916105e490611c86565b80601f016020809104026020016040519081016040528092919081815260200182805461061090611c86565b801561065d5780601f106106325761010080835404028352916020019161065d565b820191906000526020600020905b81548152906001019060200180831161064057829003601f168201915b5050505050905084565b6001600160401b0385166000908152600460205260408120546001600160a01b03166106eb5760405162461bcd60e51b815260206004820152602860248201527f76616c696461746f72206973206e6f742073657420666f7220746869732072656044820152671c5d595cdd081a5960c21b60648201526084015b60405180910390fd5b6001600160401b03861660009081526003602052604090205461075c5760405162461bcd60e51b8152602060048201526024808201527f7175657279206973206e6f742073657420666f722074686973207265717565736044820152631d081a5960e21b60648201526084016106e2565b6001600160401b03861660009081526004602052604090205461078b90879087906001600160a01b0316611170565b6001600160401b03861660009081526004602081815260408084205460039092529283902092516319f8754160e21b81526001600160a01b03909116926367e1d504926107e1928a928a928a928a929101611d84565b602060405180830381865afa1580156107fe573d6000803e3d6000fd5b505050506040513d601f19601f820116820180604052508101906108229190611e71565b61086e5760405162461bcd60e51b815260206004820152601b60248201527f70726f6f6620726573706f6e7365206973206e6f742076616c6964000000000060448201526064016106e2565b3360009081526002602090815260408083206001600160401b038a1684528252808320805460ff1916600117905560049091529020546108ba90879087906001600160a01b0316611220565b50600195945050505050565b6001600160a01b03821660009081526006602090815260408083206001600160e01b03198516845290915290205460ff1692915050565b61092f6040518060a0016040528060008152602001600081526020016000815260200160608152602001606081525090565b6001600160401b038216600090815260036020818152604092839020835160a0810185528154815260018201548184015260028201548186015292810180548551818502810185019096528086529394919360608601938301828280156109b557602002820191906000526020600020905b8154815260200190600101908083116109a1575b505050505081526020016004820180546109ce90611c86565b80601f01602080910402602001604051908101604052809291908181526020018280546109fa90611c86565b8015610a475780601f10610a1c57610100808354040283529160200191610a47565b820191906000526020600020905b815481529060010190602001808311610a2a57829003601f168201915b5050505050815250509050919050565b60058181548110610a6757600080fd5b9060005260206000209060049182820401919006600802915054906101000a90046001600160401b031681565b610a9c6110c4565b6001600160a01b038116610b015760405162461bcd60e51b815260206004820152602660248201527f4f776e61626c653a206e6577206f776e657220697320746865207a65726f206160448201526564647265737360d01b60648201526084016106e2565b610b0a8161111e565b50565b6000610b176110c4565b6001600160401b0384166000908152600460205260409020546001600160a01b0316610b9b57600580546001810182556000919091527f036b6384b5eca791c62761152d0c79bb0604c104a5fb6f4eb0703f3154bb3db06004820401805460039092166008026101000a6001600160401b0381810219909316928716029190911790555b60608201516001600160401b03851660009081526003602081815260409092208351610bcd94919092019201906114c1565b506040808301516001600160401b038616600090815260036020908152929020600281019190915560808401518051610c1093600490930192919091019061150c565b506020808301516001600160401b0386166000908152600383526040902060018101919091558351815560808401518051610c5593600490930192919091019061150c565b50506001600160401b038316600090815260046020526040902080546001600160a01b0384166001600160a01b031990911617905560019392505050565b6000600882604051602001610ca89190611e93565b60408051601f198184030181529190528051602090910120901c92915050565b60008281526020819052604090205460ff1615610cf857604051632ec8265960e11b815260040160405180910390fd5b7f00000000000000000000000000000000000000000000000000000000000000006001600160a01b0316633bc778e3847f0000000000000000000000000000000000000000000000000000000000000000610d8988604051602001610d75919060609190911b6bffffffffffffffffffffffff1916815260140190565b604051602081830303815290604052610c93565b867f0000000000000000000000000000000000000000000000000000000000000000876040518763ffffffff1660e01b8152600401610dcd96959493929190611eaf565b60006040518083038186803b158015610de557600080fd5b505afa158015610df9573d6000803e3d6000fd5b50505060009283525050602081905260409020805460ff191660011790555050565b6001600160a01b0382166000908152600660209081526040808320632da94aef60e21b845290915290205460ff1615610e6757604051630231faf760e31b815260040160405180910390fd5b6001600160a01b03821660008181526006602090815260408083206001600160e01b0319861680855290835292819020805460ff191660011790558051938452908301919091527f8f8d65b7386a341b40212e5837a1c7776cacba954081cbfaa5025ab7ae317cde910160405180910390a15050565b805160009081906001600160e01b0319166339d690a360e11b1480610f13575082516001600160e01b03191663025ceed960e61b145b15610f3f576000808460200151806020019051810190610f339190611f08565b90969095509350505050565b82516001600160e01b0319166322ba176160e21b1415610f7e5760008360200151806020019051810190610f739190611f36565b946000945092505050565b506000928392509050565b6000610f986020830183611b28565b610fa56020840184611f53565b610fb26040850185611f53565b604051602001610fc493929190611ff5565b604051602081830303815290604052805190602001209050919050565b600080611002610ff46020850185611f53565b610ffd9061202b565b610edd565b909250905060008061101a610ff46040870187611f53565b909250905061103f84846110316040890189611f53565b61103a9061202b565b6112c1565b61106661104b86610f89565b6000908152600860205260409020805460ff19166001179055565b604080513381526001600160a01b038681166020830152818301869052841660608201526080810183905290517fa4aa18b29a9a25b941aa52564368f431934fa58c0dd5c710a87eb8c7092be1f99181900360a00190a15050505050565b6001546001600160a01b031633146105b25760405162461bcd60e51b815260206004820181905260248201527f4f776e61626c653a2063616c6c6572206973206e6f7420746865206f776e657260448201526064016106e2565b600180546001600160a01b038381166001600160a01b0319831681179093556040519116919082907f8be0079c531659141344cd1fd0a4f28419497f9722a3daafe3b4186f6b6457e090600090a35050565b60006111f583836001600160a01b0316639f442afa6040518163ffffffff1660e01b8152600401602060405180830381865afa1580156111b4573d6000803e3d6000fd5b505050506040513d601f19601f820116820180604052508101906111d891906120b0565b815181106111e8576111e86120c9565b6020026020010151611334565b9050336001600160a01b0382161461036057604051635390177b60e11b815260040160405180910390fd5b3360016001600160401b0385161461124b57604051637483123560e01b815260040160405180910390fd5b6001600160a01b0381166000908152600660209081526040808320632da94aef60e21b845290915290205460ff161561129757604051630231faf760e31b815260040160405180910390fd5b610360817fb6a52bbcb3c8a5e803f3bf8d8c28d5d9072c696707a3e6a596e6d1d3f607f571610e1b565b6001600160a01b038316600081815260076020908152604080832086845282528083209383526009825280832086845282528083205483529281529190208251815463ffffffff191660e09190911c178155828201518051849361132c92600185019291019061150c565b505050505050565b600061149161148a6114858460008190506008817eff00ff00ff00ff00ff00ff00ff00ff00ff00ff00ff00ff00ff00ff00ff00ff16901b6008827fff00ff00ff00ff00ff00ff00ff00ff00ff00ff00ff00ff00ff00ff00ff00ff0016901c1790506010817dffff0000ffff0000ffff0000ffff0000ffff0000ffff0000ffff0000ffff16901b6010827fffff0000ffff0000ffff0000ffff0000ffff0000ffff0000ffff0000ffff000016901c1790506020817bffffffff00000000ffffffff00000000ffffffff00000000ffffffff16901b6020827fffffffff00000000ffffffff00000000ffffffff00000000ffffffff0000000016901c17905060408177ffffffffffffffff0000000000000000ffffffffffffffff16901b60408277ffffffffffffffff0000000000000000ffffffffffffffff1916901c179050608081901b608082901c179050919050565b611497565b6014015190565b92915050565b60408051602080825281830190925260609160208201818036833750505060208101929092525090565b8280548282559060005260206000209081019282156114fc579160200282015b828111156114fc5782518255916020019190600101906114e1565b5061150892915061157f565b5090565b82805461151890611c86565b90600052602060002090601f01602090048101928261153a57600085556114fc565b82601f1061155357805160ff19168380011785556114fc565b828001600101855582156114fc57918201828111156114fc5782518255916020019190600101906114e1565b5b808211156115085760008155600101611580565b6001600160a01b0381168114610b0a57600080fd5b634e487b7160e01b600052604160045260246000fd5b60405160a081016001600160401b03811182821017156115e1576115e16115a9565b60405290565b604080519081016001600160401b03811182821017156115e1576115e16115a9565b604051601f8201601f191681016001600160401b0381118282101715611631576116316115a9565b604052919050565b60008060008061016080868803121561165157600080fd5b853561165c81611594565b9450602086810135945060408701359350607f8701881361167c57600080fd5b60405161010081018181106001600160401b038211171561169f5761169f6115a9565b6040529187019180898411156116b457600080fd5b606089015b848110156116d057803582529083019083016116b9565b505080935050505092959194509250565b6020808252825182820181905260009190848201906040850190845b818110156117225783516001600160401b0316835292840192918401916001016116fd565b50909695505050505050565b60008060006060848603121561174357600080fd5b833561174e81611594565b95602085013595506040909401359392505050565b60006020828403121561177557600080fd5b81356001600160401b0381111561178b57600080fd5b82016060818503121561179d57600080fd5b9392505050565b6000602082840312156117b657600080fd5b5035919050565b80356001600160401b03811681146117d457600080fd5b919050565b6000602082840312156117eb57600080fd5b61179d826117bd565b60005b8381101561180f5781810151838201526020016117f7565b838111156103605750506000910152565b600081518084526118388160208601602086016117f4565b601f01601f19169290920160200192915050565b8481528360208201528260408201526080606082015260006118716080830184611820565b9695505050505050565b6000806040838503121561188e57600080fd5b823561189981611594565b91506118a7602084016117bd565b90509250929050565b600082601f8301126118c157600080fd5b813560206001600160401b038211156118dc576118dc6115a9565b8160051b6118eb828201611609565b928352848101820192828101908785111561190557600080fd5b83870192505b848310156119245782358252918301919083019061190b565b979650505050505050565b600082601f83011261194057600080fd5b6119486115e7565b80604084018581111561195a57600080fd5b845b8181101561197457803584526020938401930161195c565b509095945050505050565b6000806000806000610140868803121561199857600080fd5b6119a1866117bd565b94506020808701356001600160401b038111156119bd57600080fd5b6119c989828a016118b0565b95505060406119da89828a0161192f565b945088609f8901126119eb57600080fd5b6119f36115e7565b806101008a018b811115611a0657600080fd5b60808b015b81811015611a2a57611a1d8d8261192f565b8452928501928401611a0b565b50819650611a388c8261192f565b955050505050509295509295909350565b80356001600160e01b0319811681146117d457600080fd5b60008060408385031215611a7457600080fd5b8235611a7f81611594565b91506118a760208401611a49565b600081518084526020808501945080840160005b83811015611abd57815187529582019590820190600101611aa1565b509495945050505050565b602081528151602082015260208201516040820152604082015160608201526000606083015160a06080840152611b0260c0840182611a8d565b90506080840151601f198483030160a0850152611b1f8282611820565b95945050505050565b600060208284031215611b3a57600080fd5b813561179d81611594565b60006001600160401b03831115611b5e57611b5e6115a9565b611b71601f8401601f1916602001611609565b9050828152838383011115611b8557600080fd5b828260208301376000602084830101529392505050565b600080600060608486031215611bb157600080fd5b611bba846117bd565b92506020840135611bca81611594565b915060408401356001600160401b0380821115611be657600080fd5b9085019060a08288031215611bfa57600080fd5b611c026115bf565b823581526020830135602082015260408301356040820152606083013582811115611c2c57600080fd5b611c38898286016118b0565b606083015250608083013582811115611c5057600080fd5b80840193505087601f840112611c6557600080fd5b611c7488843560208601611b45565b60808201528093505050509250925092565b600181811c90821680611c9a57607f821691505b60208210811415611cbb57634e487b7160e01b600052602260045260246000fd5b50919050565b8060005b6002811015610360578151845260209384019390910190600101611cc5565b8054600090600181811c9080831680611cfe57607f831692505b6020808410821415611d2057634e487b7160e01b600052602260045260246000fd5b83885260208801828015611d3b5760018114611d4c57611d77565b60ff19871682528282019750611d77565b60008981526020902060005b87811015611d7157815484820152908601908401611d58565b83019850505b5050505050505092915050565b6000610140808352611d9881840189611a8d565b90506020611da881850189611cc1565b606084018760005b6002811015611dd757611dc4838351611cc1565b6040929092019190830190600101611db0565b505050611de760e0850187611cc1565b83820361012085015284548252600180860154828401526002860154604084015260a0606084018190526003870180549185018290526000908152838120929160c08601905b80831015611e4a5784548252938301939183019190850190611e2d565b508581036080870152611e608160048b01611ce4565b9d9c50505050505050505050505050565b600060208284031215611e8357600080fd5b8151801515811461179d57600080fd5b60008251611ea58184602087016117f4565b9190910192915050565b60006101a0820190508782526020878184015286604084015285606084015284608084015260a083018460005b6008811015611ef957815183529183019190830190600101611edc565b50505050979650505050505050565b60008060408385031215611f1b57600080fd5b8251611f2681611594565b6020939093015192949293505050565b600060208284031215611f4857600080fd5b815161179d81611594565b60008235603e19833603018112611ea557600080fd5b6001600160e01b0319611f7b82611a49565b16825260006020820135601e19833603018112611f9757600080fd5b820180356001600160401b03811115611faf57600080fd5b803603841315611fbe57600080fd5b60406020860152806040860152806020830160608701376000606082870101526060601f19601f8301168601019250505092915050565b6001600160a01b038416815260606020820181905260009061201990830185611f69565b82810360408401526118718185611f69565b60006040823603121561203d57600080fd5b604051604081016001600160401b038282108183111715612060576120606115a9565b8160405261206d85611a49565b8352602085013591508082111561208357600080fd5b50830136601f82011261209557600080fd5b6120a436823560208401611b45565b60208301525092915050565b6000602082840312156120c257600080fd5b5051919050565b634e487b7160e01b600052603260045260246000fdfea26469706673582212207eeaa6a8c814e764917f3cb3db9facbf25b879ce2afbc1340753f8cde4ac08e164736f6c634300080a0033",
  "linkReferences": {},
  "deployedLinkReferences": {}
}